S013000050574D5F70726F6A6563742E73726563C7
S11300000C9453000C9470000C9470000C947000C9
S11300100C9470000C9470000C9470000C9470009C
S11300200C9470000C9470000C9470000C9470008C
S11300300C9470000C9470000C9470000C9470007C
S11300400C9470000C9470000C9470000C9470006C
S11300500C9470009700A100AB00B500BF00C9006C
S1130060D300DD00FD000D011D012D013D014D01F9
S11300705D016D01B204A404A604A804AA04AC049E
S1130080AE04B004CD04BF04C104C304C504C70452
S1130090C904CB04E804E804DA04DC04DE04E00464
S11300A0E204E404E60411241FBECFE5D8E0DEBF79
S11300B0CDBF10E0A0E6B0E0ECE9FAE102C00590A3
S11300C00D92AA38B107D9F720E0AAE8B0E001C040
S11300D01D92AC38B207E1F70E94DC0A0C944C0D77
S11300E00C940000813059F018F0823079F014C07B
S11300F087B18F7787B987B18F7B87B90DC087B1F7
S11301008F7787B987B1806487B906C087B1806863
S113011087B987B1806487B9862F90E088309105CC
S113012008F054C0FC01E65DFF4F0C94050D86B148
S11301308B7F86B986B18D7F86B986B18E7F86B96D
S113014045C086B18B7F86B986B18D7F86B986B16D
S1130150816086B93BC086B18B7F86B986B18260E7
S113016086B986B18E7F86B931C086B18B7F86B958
S113017086B1826086B986B1816086B927C086B1AE
S1130180846086B986B18D7F86B986B18E7F86B943
S11301901DC086B1846086B986B18D7F86B986B16B
S11301A0816086B913C086B1846086B986B18260E5
S11301B086B986B18E7F86B909C086B1846086B956
S11301C086B1826086B986B1816086B986B180685D
S11301D086B986B1877F86B986B1806286B987B1D0
S11301E08F7D87B9089590E08830910508F084C028
S11301F0FC01EE5CFF4F0C94050D87B18F7E87B92F
S113020087B1877F87B987B18B7F87B987B18D7FA6
S113021087B987B18E7F87B96FC087B18F7E87B961
S113022087B1877F87B987B18B7F87B987B18D7F86
S113023087B987B1816087B95FC087B18F7E87B97D
S113024087B1877F87B987B18B7F87B987B1826090
S113025087B987B18E7F87B94FC087B18F7E87B941
S113026087B1877F87B987B18B7F87B987B1826070
S113027087B987B1816087B93FC087B18F7E87B95D
S113028087B1877F87B987B1846087B987B18D7F4C
S113029087B987B18E7F87B92FC087B18F7E87B921
S11302A087B1877F87B987B1846087B987B18D7F2C
S11302B087B987B1816087B91FC087B18F7E87B93D
S11302C087B1877F87B987B1846087B987B1826036
S11302D087B987B18E7F87B90FC087B18F7E87B901
S11302E087B1877F87B987B1846087B987B1826016
S11302F087B987B1816087B986B1806486B9349B38
S1130300FECF84B195B10895442319F04130C9F169
S11303100895813091F028F08230D9F0833029F1AA
S113032008952AB381E090E002C0880F991F6A956E
S1130330E2F7809582238ABB089527B381E090E099
S113034002C0880F991F6A95E2F78095822387BBC4
S1130350089524B381E090E002C0880F991F6A9544
S1130360E2F78095822384BB089521B381E090E075
S113037002C0880F991F6A95E2F78095822381BB9A
S11303800895813089F028F08230C9F0833011F16A
S113039008952AB381E090E002C0880F991F6A95FE
S11303A0E2F7822B8ABB089527B381E090E002C074
S11303B0880F991F6A95E2F7822B87BB089524B3AF
S11303C081E090E002C0880F991F6A95E2F7822BC2
S11303D084BB089521B381E090E002C0880F991F87
S11303E06A95E2F7822B81BB0895442319F04130CA
S11303F0C9F10895813091F028F08230D9F083302A
S113040029F108952BB381E090E002C0880F991F71
S11304106A95E2F7809582238BBB089528B381E027
S113042090E002C0880F991F6A95E2F780958223B5
S113043088BB089525B381E090E002C0880F991F1E
S11304406A95E2F78095822385BB089522B381E003
S113045090E002C0880F991F6A95E2F78095822385
S113046082BB0895813089F028F08230C9F083304E
S113047011F108952BB381E090E002C0880F991F19
S11304806A95E2F7822B8BBB089528B381E090E054
S113049002C0880F991F6A95E2F7822B88BB0895E2
S11304A025B381E090E002C0880F991F6A95E2F7B6
S11304B0822B85BB089522B381E090E002C0880FAF
S11304C0991F6A95E2F7822B82BB089593B79860CF
S11304D093BF93B7906493BF97B3986097BB8230F0
S11304E001F128F4882349F0813089F0089584309B
S11304F061F108F1853099F1089583B78B7F83BF4B
S113050083B78D7F83BF83B78E7F83BF089583B7FF
S11305108B7F83BF83B78D7F83BF83B7816083BFA6
S1130520089583B78B7F83BF83B7826083BF83B70C
S11305308E7F83BF089583B78B7F83BF83B7826029
S113054083BF83B7816083BF089583B7846083BF0B
S113055083B78D7F83BF83B78E7F83BF089583B7AF
S1130560846083BF83B78D7F83BF83B7816083BF7C
S11305700895CF93C82F40E061E081E00E94F50127
S113058040E062E081E00E94F50140E067E083E042
S11305900E94F5018C2F807F8BBBCF70CC0FCC0FCA
S11305A0CC0FC5BB41E067E083E00E94F5018FE911
S11305B09FE00197F1F700C0000040E067E083E0AE
S11305C00E94F501CF91089541E061E081E00E942D
S11305D0840141E062E081E00E94840141E067E03F
S11305E083E00E94840141E064E083E00E9484018E
S11305F041E065E083E00E94840141E063E082E041
S11306000E94840141E064E082E00E94840141E0B0
S113061065E082E00E94840141E066E082E00E949D
S1130620840141E064E080E00E94840141E065E0EF
S113063080E00E94840141E066E080E00E94840141
S113064041E067E080E00E94840140E064E083E0F0
S11306500E94F5012FEF83EF91E0215080409040FC
S1130660E1F700C0000041E064E083E00E94F5018E
S113067041E065E083E00E94F50183E30E94B90252
S113068082E30E94B90281E00E94B90282E00E94E2
S1130690B9028CE00E94B90286E00E94B902089572
S11306A0CF93C82F41E061E081E00E94F50140E072
S11306B062E081E00E94F50140E067E083E00E948F
S11306C0F5018C2F807F8BBBCF70CC0FCC0FCC0F60
S11306D0C5BB41E067E083E00E94F5018FE99FE03C
S11306E00197F1F700C0000040E067E083E00E945A
S11306F0F501CF910895CF93DF93EC0109C00E94D7
S113070050038FE39CE90197F1F700C000002196A4
S113071088818111F4CFDF91CF910895CF93DF9336
S1130720CDB7DEB72A970FB6F894DEBF0FBECDBFA4
S11307302AE0AE014F5F5F4F0E940B0DCE01019680
S11307400E947B032A960FB6F894DEBF0FBECDBF7E
S1130750DF91CF91089581E00E94B902089541E0AC
S113076062E082E00E9484010895CF93C0E00EC04D
S11307708C2F80680E94B90288E80E94B90280EC3C
S11307800E94500380E00E945003CF5FC03180F389
S1130790C0E00EC08C2F80680E94B9028CE80E94D1
S11307A0B90280EC0E94500380E00E945003CF5FA6
S11307B0C03180F3CF91089523B7206223BF23B7BC
S11307C02F7E23BFBC0180E090E00E940A0C2BED39
S11307D039EF4EE75EE30E94980C0E94DB0B6CBF7E
S11307E08FE19EE40197F1F700C00000089580E3D3
S11307F00E94B90280E80E94B90280E690E00E945B
S11308007B0385E80E94B9028CE690E00E947B039A
S113081080E90E94B90282E790E00E947B0387E9A5
S11308200E94B9028FE790E00E947B0388E90E944E
S1130830B90281E890E00E947B030895CF93DF938F
S1130840D2E014C08C2F80680E94B9028D2F886872
S11308500E94B9028FEF0E9450038FEF0E94500351
S1130860CF5F01C0CEE0C03168F3DF5F8EEF8D0F44
S11308708230C0F3C0E00EC08C2F80680E94B902A1
S11308808CE80E94B90280EC0E94500380E00E9430
S11308905003CF5FC03180F3C0E00EC08C2F80685E
S11308A00E94B9028FE80E94B90280E00E945003BE
S11308B083E00E945003CF5FC03180F3D6E014C0C0
S11308C08C2F80680E94B9028D2F88680E94B9021B
S11308D08FEF0E9450038FEF0E945003CF5F01C03F
S11308E0CEE0C03168F3DF5F8AEF8D0F8230C0F352
S11308F0DF91CF910895CF93DF93D0E014C08C2F74
S113090080680E94B9028D2F80680E94B90280E03D
S11309100E94500380E00E945003CF5F01C0C0E0FA
S1130920C03268F3DF5FD032D0F3DF91CF91089506
S113093090E0FC013197E830F10520F4E65CFF4FCC
S11309400C94050D80E0089580EC089580EE0895E0
S113095080EF089588EF08958CEF08958EEF089541
S11309608FEF089580E8089590E08830910528F489
S1130970FC01EE5BFF4F0C94050D80E008958FE7BA
S113098008958FE308958FE108958FE0089587E037
S1130990089583E0089581E008958FEF089590E02D
S11309A08930910528F4FC01E65BFF4F0C94050D9A
S11309B080E0089580E6089580E3089588E108952D
S11309C08CE0089586E0089583E0089583E0089517
S11309D080EC08950F931F93CF93DF938C0141977D
S11309E010F000E110E086E30E94B90280918A00D1
S11309F090918B00419708F135C08C2F80680E943C
S1130A00B90288E80E94B9020830110560F088EF45
S1130A10800F0E94CF04D82F80E00E9450038D2FB6
S1130A200E94500308C0802F0E94CF040E945003EC
S1130A3080E00E945003CF5F01C0C0E0C031E8F203
S1130A40C0E00EC08C2F80680E94B90289E80E9421
S1130A50B90280E00E94500380E00E945003CF5FFF
S1130A60C03180F3C0E01CC08C2F80680E94B902A2
S1130A7088E80E94B9020830110560F088EF800F01
S1130A800E949804D82F8FEF0E9450038D2F0E944C
S1130A90500305C0802F0E9498040E945003CF5F2A
S1130AA0C23010F3CEE01FC08C2F80680E94B902C0
S1130AB088E80E94B9020830110560F088EF800FC1
S1130AC00E94B404D82F80E00E9450038D2F0E940E
S1130AD0500308C0802F0E94B4040E9450038FEF7B
S1130AE00E945003CF5FC031F8F280918A00909148
S1130AF08B00419780F012C08C2F80680E94B9024D
S1130B0089E80E94B9028FEF0E9450038FEF0E9480
S1130B105003CF5F01C0CEE0C03170F380E30E9488
S1130B20B902DF91CF911F910F9108950F931F93F5
S1130B30CF93DF938C01419710F000E110E086E33E
S1130B400E94B90280918A0090918B00819708F1EC
S1130B5035C08C2F80680E94B90289E80E94B902CE
S1130B600830110560F088EF800F0E94CF04D82F61
S1130B7080E00E9450038D2F0E94500308C0802FF4
S1130B800E94CF040E94500380E00E945003CF5F74
S1130B9001C0C0E0C031E8F2C0E00EC08C2F806814
S1130BA00E94B9028AE80E94B90280E00E945003C0
S1130BB080E00E945003CF5FC03180F3C0E01CC0CE
S1130BC08C2F80680E94B90289E80E94B90208301B
S1130BD0110560F088EF800F0E949804D82F8FEFE2
S1130BE00E9450038D2F0E94500305C0802F0E9445
S1130BF098040E945003CF5FC23010F3CEE01FC0B0
S1130C008C2F80680E94B90289E80E94B9020830DA
S1130C10110560F088EF800F0E94B404D82F80E0A3
S1130C200E9450038D2F0E94500308C0802F0E9401
S1130C30B4040E9450038FEF0E945003CF5FC03171
S1130C40F8F280918A0090918B00819780F012C015
S1130C508C2F80680E94B9028AE80E94B9028FEF43
S1130C600E9450038FEF0E945003CF5F01C0CEE07B
S1130C70C03170F380E30E94B902DF91CF911F91DC
S1130C800F9108950F931F93CF93DF938C0186E305
S1130C900E94B90280918A0090918B00819708F597
S1130CA035C08C2F80680E94B9028AE80E94B9027C
S1130CB00830110560F088EF800F0E94CF04D82F10
S1130CC080E00E9450038D2F0E94500308C0802FA3
S1130CD00E94CF040E94500380E00E945003CF5F23
S1130CE001C0C0E0C031E8F2C0E00EC08C2F8068C3
S1130CF00E94B90289E80E94B90280E00E94500370
S1130D0080E00E945003CF5FC03180F380918A005D
S1130D1090918B00C09780F024C08C2F80680E9433
S1130D20B9028BE80E94B90280E00E94500380E07F
S1130D300E945003CF5F01C0C0E0C03170F3CEE029
S1130D400EC08C2F80680E94B9028BE80E94B90201
S1130D508FEF0E9450038FEF0E945003CF5FC0318A
S1130D6080F3C0E01CC08C2F80680E94B9028AE81E
S1130D700E94B9020830110560F088EF800F0E94CC
S1130D809804D82F8FEF0E9450038D2F0E94500398
S1130D9005C0802F0E9498040E945003CF5FC23088
S1130DA010F3CEE01FC08C2F80680E94B9028AE83D
S1130DB00E94B9020830110560F088EF800F0E948C
S1130DC0B404D82F80E00E9450038D2F0E9450035A
S1130DD008C0802F0E94B4040E9450038FEF0E9429
S1130DE05003CF5FC031F8F280918A0090918B005C
S1130DF0819780F412C08C2F80680E94B90289E820
S1130E000E94B9028FEF0E9450038FEF0E9450039B
S1130E10CF5F01C0C0E0C23070F380E30E94B9022A
S1130E20DF91CF911F910F9108950F931F93CF934B
S1130E30DF938C01C19710F000E110E086E30E947B
S1130E40B90280918A0090918B00C19708F523C064
S1130E508C2F80680E94B9028BE80E94B902083086
S1130E60110560F088EF800F0E94CF04D82F80E036
S1130E700E9450038D2F0E94500308C0802F0E94AF
S1130E80CF040E94500380E00E945003CF5F01C052
S1130E90C0E0C031E8F2C0E01CC08C2F80680E9422
S1130EA0B9028BE80E94B9020830110560F088EF9E
S1130EB0800F0E949804D82F8FEF0E9450038D2F2B
S1130EC00E94500305C0802F0E9498040E94500382
S1130ED0CF5FC23010F3CEE01FC08C2F80680E9419
S1130EE0B9028BE80E94B9020830110560F088EF5E
S1130EF0800F0E94B404D82F80E00E9450038D2FED
S1130F000E94500308C0802F0E94B4040E94500322
S1130F108FEF0E945003CF5FC031F8F280918A00B6
S1130F2090918B00C19780F412C08C2F80680E942E
S1130F30B9028AE80E94B9028FEF0E9450038FEF32
S1130F400E945003CF5F01C0C0E0C23070F380E361
S1130F500E94B902DF91CF911F910F9108950F93D1
S1130F601F93CF93DF938C01419710F000E110E0C1
S1130F7086E30E94B90280918A0090918B00419788
S1130F8008F135C08C2F80680E94B9028CE80E9459
S1130F90B9020830110560F088EF800F0E94CF0479
S1130FA0D82F80E00E9450038D2F0E94500308C068
S1130FB0802F0E94CF040E94500380E00E945003BF
S1130FC0CF5F01C0C0E0C031E8F2C0E00EC08C2F9A
S1130FD080680E94B9028DE80E94B90280E00E94F4
S1130FE0500380E00E945003CF5FC03180F3C0E023
S1130FF01CC08C2F80680E94B9028CE80E94B90240
S11310000830110560F088EF800F0E949804D82FF3
S11310108FEF0E9450038D2F0E94500305C0802F34
S11310200E9498040E945003CF5FC23010F3CEE0B8
S11310301FC08C2F80680E94B9028CE80E94B902FC
S11310400830110560F088EF800F0E94B404D82F97
S113105080E00E9450038D2F0E94500308C0802F0F
S11310600E94B4040E9450038FEF0E945003CF5F8C
S1131070C031F8F280918A0090918B00419780F002
S113108012C08C2F80680E94B9028DE80E94B902B8
S11310908FEF0E9450038FEF0E945003CF5F01C077
S11310A0CEE0C03170F380E30E94B902DF91CF91AA
S11310B01F910F91089580918A0090918B000E9456
S11310C0EA0480918A0090918B000E94AF070895F2
S11310D00F931F93CF93DF938C01419710F000E19E
S11310E010E086E30E94B90280918A0090918B00FF
S11310F0819708F147C08C2F80680E94B9028DE85F
S11311000E94B9020830110560F088EF800F0E9438
S1131110CF04D82F80E00E9450038D2F0E945003EB
S113112008C0802F0E94CF040E94500380E00E94D8
S11311305003CF5F01C0C0E0C031E8F2C0E00EC090
S11311408C2F80680E94B9028EE80E94B90280E068
S11311500E94500380E00E945003CF5FC03180F3AF
S1131160C0E00EC08C2F80680E94B9028CE80E94F7
S1131170B90280E00E94500380E00E945003CF5FD8
S1131180C03180F3C0E01CC08C2F80680E94B9027B
S11311908DE80E94B9020830110560F088EF800FD5
S11311A00E949804D82F8FEF0E9450038D2F0E9425
S11311B0500305C0802F0E9498040E945003CF5F03
S11311C0C23010F3CEE01FC08C2F80680E94B90299
S11311D08DE80E94B9020830110560F088EF800F95
S11311E00E94B404D82F80E00E9450038D2F0E94E7
S11311F0500308C0802F0E94B4040E9450038FEF54
S11312000E945003CF5FC031F8F280918A00909120
S11312108B00819780F012C08C2F80680E94B902E5
S11312208EE80E94B9028FEF0E9450038FEF0E9454
S11312305003CF5F01C0CEE0C03170F380E30E9461
S1131240B902DF91CF911F910F910895CF93DF934E
S1131250C0918A00D0918B006097CE010E949605C0
S1131260CE010E946808DF91CF9108950F931F93D8
S1131270CF93DF938C0186E30E94B90280918A00A8
S113128090918B00819708F535C08C2F80680E945F
S1131290B9028EE80E94B9020830110560F088EFA7
S11312A0800F0E94CF04D82F80E00E9450038D2F1E
S11312B00E94500308C0802F0E94CF040E94500354
S11312C080E00E945003CF5F01C0C0E0C031E8F26B
S11312D0C0E00EC08C2F80680E94B9028DE80E9485
S11312E0B90280E00E94500380E00E945003CF5F67
S11312F0C03180F380918A0090918B00C09780F078
S113130024C08C2F80680E94B9028FE80E94B90221
S113131080E00E94500380E00E945003CF5F01C030
S1131320C0E0C03170F3CEE00EC08C2F80680E9404
S1131330B9028FE80E94B9028FEF0E9450038FEF29
S11313400E945003CF5FC03180F3C0E01CC08C2FDB
S113135080680E94B9028EE80E94B9020830110523
S113136060F088EF800F0E949804D82F8FEF0E94BE
S113137050038D2F0E94500305C0802F0E949804B3
S11313800E945003CF5FC23010F3CEE01FC08C2FF9
S113139080680E94B9028EE80E94B90208301105E3
S11313A060F088EF800F0E94B404D82F80E00E9480
S11313B050038D2F0E94500308C0802F0E94B40454
S11313C00E9450038FEF0E945003CF5FC031F8F2A8
S11313D080918A0090918B00819780F412C08C2FA9
S11313E080680E94B9028DE80E94B9028FEF0E94C2
S11313F050038FEF0E945003CF5F01C0C0E0C230A2
S113140070F380E30E94B902DF91CF911F910F9195
S11314100895CF93DF93C0918A00D0918B00A09759
S1131420CE010E944206CE010E943609DF91CF917F
S113143008950F931F93CF93DF938C01C19710F0FE
S113144000E110E086E30E94B90280918A00909145
S11314508B00C19708F523C08C2F80680E94B902C5
S11314608FE80E94B9020830110560F088EF800F00
S11314700E94CF04D82F80E00E9450038D2F0E9439
S1131480500308C0802F0E94CF040E94500380E0C4
S11314900E945003CF5F01C0C0E0C031E8F2C0E059
S11314A01CC08C2F80680E94B9028FE80E94B90288
S11314B00830110560F088EF800F0E949804D82F3F
S11314C08FEF0E9450038D2F0E94500305C0802F80
S11314D00E9498040E945003CF5FC23010F3CEE004
S11314E01FC08C2F80680E94B9028FE80E94B90245
S11314F00830110560F088EF800F0E94B404D82FE3
S113150080E00E9450038D2F0E94500308C0802F5A
S11315100E94B4040E9450038FEF0E945003CF5FD7
S1131520C031F8F280918A0090918B00C19780F0CD
S113153012C08C2F80680E94B9028FE80E94B90201
S11315408FEF0E9450038FEF0E945003CF5F01C0C2
S1131550CEE0C03170F380918A0090918B00C197E6
S113156080F412C08C2F80680E94B9028EE80E9419
S1131570B9028FEF0E9450038FEF0E945003CF5F98
S113158001C0C0E0C23070F380E30E94B902DF9171
S1131590CF911F910F910895CF93DF93C0918A004B
S11315A0D0918B00E097CE010E941507CE010E94D6
S11315B0190ADF91CF91089585E00E9466020E9486
S11315C0AF030E94E4020E94AB0367E081E00E9443
S11315D0720084E30E94B9022FEF81EE94E021505F
S11315E080409040E1F700C0000086E30E94B90209
S11315F02FEF89E698E1215080409040E1F700C048
S113160000000E947B040E941E042FEF89EF90E0EB
S1131610215080409040E1F700C000000E94F70391
S113162081E00E94F300EC010E94DC03BE0180E033
S113163090E00E940A0C2AE037ED43E251E40E9454
S1131640690B0E94DB0B6B017C01672BC1F186E9FE
S11316500E94B902E12CF12CC701B6010E948E034D
S1131660C701B6010E940A0C2AE037ED43E25FE3AA
S11316700E94980C0E94DB0B70938B0060938A008D
S113168086E30E94B9020E94B5030E945B08809120
S11316908A0090918B00409710F00E942609809157
S11316A08A0090918B00809710F00E94090A809123
S11316B08A0090918B00C09710F00E94CC0A2FEF03
S11316C089EF90E0215080409040E1F700C0000095
S11316D0A7CF0E947D0B0C945E0C0E94570C58F00F
S11316E00E94500C40F029F45F3F29F00C94470C01
S11316F051110C94920C0C944D0C0E946F0C68F3D5
S11317009923B1F3552391F3951B550BBB27AA27B6
S113171062177307840738F09F5F5F4F220F331FF0
S1131720441FAA1FA9F335D00E2E3AF0E0E832D0B8
S113173091505040E695001CCAF72BD0FE2F29D0BB
S1131740660F771F881FBB1F261737074807AB078D
S1131750B0E809F0BB0B802DBF01FF2793585F4F02
S11317603AF09E3F510578F00C94470C0C94920C7F
S11317705F3FE4F3983ED4F3869577956795B795E4
S1131780F7959F5FC9F7880F911D9695879597F9EF
S11317900895E1E0660F771F881FBB1F6217730768
S11317A08407BA0720F0621B730B840BBA0BEE1F7D
S11317B088F7E09508950E94770C88F09F5798F079
S11317C0B92F9927B751B0F0E1F0660F771F881F42
S11317D0991F1AF0BA95C9F714C0B13091F00E945C
S11317E0910CB1E008950C94910C672F782F882701
S11317F0B85F39F0B93FCCF3869577956795B39583
S1131800D9F73EF490958095709561957F4F8F4FF1
S11318109F4F0895E89409C097FB3EF490958095F6
S1131820709561957F4F8F4F9F4F9923A9F0F92FA2
S113183096E9BB279395F695879577956795B79520
S1131840F111F8CFFAF4BB0F11F460FF1BC06F5F06
S11318507F4F8F4F9F4F16C0882311F096E911C018
S1131860772321F09EE8872F762F05C0662371F039
S113187096E8862F70E060E02AF09A95660F771F4D
S1131880881FDAF7880F9695879597F9089597F941
S11318909F6780E870E060E008959FEF80EC089512
S11318A000240A941616170618060906089500243B
S11318B00A9412161306140605060895092E0394B5
S11318C0000C11F4882352F0BB0F40F4BF2B11F429
S11318D060FF04C06F5F7F4F8F4F9F4F089557FD88
S11318E09058440F551F59F05F3F71F04795880F8A
S11318F097FB991F61F09F3F79F087950895121621
S113190013061406551FF2CF4695F1DF08C01616CC
S113191017061806991FF1CF86957105610508947D
S11319200895E894BB2766277727CB0197F9089594
S11319300E94AB0C0C945E0C0E94500C38F00E9478
S1131940570C20F0952311F00C94470C0C944D0C7B
S113195011240C94920C0E946F0C70F3959FC1F3A8
S1131960950F50E0551F629FF001729FBB27F00D49
S1131970B11D639FAA27F00DB11DAA1F649F66279E
S1131980B00DA11D661F829F2227B00DA11D621FED
S1131990739FB00DA11D621F839FA00D611D221FA7
S11319A0749F3327A00D611D231F849F600D211D8B
S11319B0822F762F6A2F11249F5750409AF0F1F00E
S11319C088234AF0EE0FFF1FBB1F661F771F881F77
S11319D091505040A9F79E3F510580F00C94470C5C
S11319E00C94920C5F3FE4F3983ED4F3869577957C
S11319F06795B795F795E7959F5FC1F7FE2B880F1D
S1131A00911D9695879597F90895EE0FFF1F059000
S1131A10F491E02D0994BB272A3051F4992342F420
S1131A20BDE290958095709561957F4F8F4F9F4F44
S1131A300C941B0DBB27FA01A62F621771058105B3
S1131A409105330B30FB66F0AA27660F771F881FBA
S1131A50991FAA1FA21710F0A21B63953850A9F76B
S1131A60A05DAA3308F0A95DA19336F7B111B19333
S1131A701082CA010C943C0DDC01FC01672F7191AA
S1131A807723E1F7329704C07C916D937083629160
S10F1A90AE17BF07C8F30895F894FFCF09
S1131A9C4672657175656E63793A2000363120485B
S1131AAC7A0064757479206379636C653A20002537
S10D1ABC003C2074696D65203E00B3
S9030000FC
